:100000000C9434000C9451000C9451000C94510049
:100010000C9451000C9451000C9451000C9451001C
:100020000C9451000C94B8020C9451000C945100A3
:100030000C9451000C9451000C9451000C945100FC
:100040000C942D020C9451000C9451000C9451000E
:100050000C9451000C9451000C9451000C945100DC
:100060000C9451000C94510011241FBECFEFD8E026
:10007000DEBFCDBF11E0A0E0B1E0EAE7F7E002C0EB
:1000800005900D92A231B107D9F721E0A2E1B1E0CC
:1000900001C01D92AE33B207E1F70E94DF000C945D
:1000A000BB030C9400003A9A389A239A399A509AD2
:1000B000519A529A3B9A2198229885B5846085BDC1
:1000C000EEE6F0E080818160808382EA86BDE1EB2C
:1000D000F0E0808182608083E0E7F0E080818160F1
:1000E00080838EEA809366000895E82FF0E0EA5F4F
:1000F000FE4F808182FF02C0429A01C042988081F7
:1001000080FF02C0409A01C04098808183FF02C0F6
:100110002B9A01C02B98808181FF02C0419A0895DB
:1001200041980895CF93C82F80ED0E946F038C2FC4
:100130000E94A00381ED0E9496030E94B103809368
:100140001B01CF910C949803CF93C82F80ED0E9490
:100150006F038C2F0E94A00380911B010E94A003BB
:10016000CF910C949803CF93DF93EC0180E00E9431
:10017000920080911B018F708D8380911B0182956D
:1001800087708C8381E00E94920080911B018F70A8
:100190008B8380911B01829587708A8382E00E9405
:1001A000920080911B018F70898380911B01829541
:1001B0008370888310921E01DF91CF9108950E9471
:1001C00047030E94530080E880931B0180E00E9457
:1001D00092008FE19EE40197F1F700C0000080914A
:1001E0001B0187FF0FC010921B0182E00E94A40038
:1001F00010921B0181E00E94A40010921B0180E07C
:100200000E94A40080E091E00E94B300809101016F
:100210008FE19EE40197F1F700C00000789413E0AD
:10022000C0E4DCE90CE08FE0F82E80911201882315
:1002300009F4E9C010931E01809112018823A9F3EB
:10024000199BFECF1A9BFCCF9FEF21EE34E091501B
:1002500020403040E1F700C00000109214011092DD
:100260001301D0931601C0931501809113018230C0
:10027000E1F18091150190911601892BB1F18091E6
:100280001401823091F7D0931601C093150180912B
:1002900001018F5F8093010180910101843058F04A
:1002A00080910001823038F01092010180910001AC
:1002B0008F5F80930001809101018A3058F0809116
:1002C0000001823038F410920101809100018F5FAB
:1002D0008093000180910001833010F010920001A2
:1002E000199BFECF10921401C0CF809115019091FF
:1002F0001601892B09F482C000931E01D0931601C8
:10030000C09315011A9BFECF8FEF91EE24E0815030
:1003100090402040E1F700C00000109214011092BC
:10032000130180911301823049F180911501909160
:100330001601892B19F180911401823091F7D09325
:100340001601C0931501809103018F5F8093030113
:10035000809103018A3038F01092030180910201EC
:100360008F5F8093020180910201863010F010921D
:100370000201199BFECF10921401D3CF809113017B
:100380008230E1F510921E011092040110920501D5
:10039000909100018091010130E1939F800D112423
:1003A00080931B0182E00E94A40090910201809141
:1003B000030120E1929F800D112480931B0181E0B5
:1003C0000E94A40010921B0180E00E94A400809172
:1003D0000101809101018FE39CE90197F1F700C0D1
:1003E0000000F0921E011A9BFECF9FEF2DE339E42F
:1003F000915020403040E1F700C0000010921E01F3
:100400001092120119CFE090010180E091E00E946A
:10041000B30080910101E8120AC08FE798E321E060
:10042000815090402040E1F700C00000FECE80E007
:100430008093000180930101809302018093030166
:100440003FEF94E32CE0315090402040E1F700C0B2
:1004500000008F5F8A3061F7E0CF1F920F920FB6D6
:100460000F9211242F933F934F935F936F937F933A
:100470008F939F93AF93BF93EF93FF9382EA86BDD1
:10048000589859985A984398429A409A2B9A419A68
:1004900020911F0181E090E001C0880F2A95EAF7C2
:1004A00080931C0180911D018F5F80931D018091BD
:1004B0001D0190911E0180911C01892321F08091E2
:1004C0001D01833340F0E0911F01F0E0E050FF4F49
:1004D00080810E94750080911F018130E1F028F039
:1004E0008230F9F0833019F127C0809100018A3001
:1004F00020F48091000181110CC0809100018A30AC
:10050000D8F480910001811117C0809101018111FF
:1005100013C0589A11C0809101018A3068F4599A29
:100520000BC0809102018A3038F45A9A05C080913C
:1005300003018A3008F4439A80911F018F5F8093F2
:100540001F0180911F01843010F010921F01FF9154
:10055000EF91BF91AF919F918F917F916F915F913B
:100560004F913F912F910F900FBE0F901F901895B4
:100570001F920F920FB60F9211242F938F939F9378
:1005800019990AC08091190190911A0101969093CE
:100590001A018093190104C010921A0110921901D6
:1005A0001A990AC0809117019091180101969093B1
:1005B00018018093170104C01092180110921701BE
:1005C00080911201813079F480911501909116018A
:1005D000892B49F080911501909116010197909314
:1005E0001601809315018091120181112AC080911A
:1005F000190190911A018131974218F081E080939E
:10060000120180911701909118018131974218F0E1
:1006100081E0809312018091190190911A0189392A
:100620009A4320F010921A0110921901809117013B
:100630009091180189399A4320F010921801109274
:100640001701809112018130D1F4809119019091AC
:100650001A01899738F010921A011092190182E05C
:10066000809314018091170190911801899738F0B7
:10067000109218011092170182E0809313019F914C
:100680008F912F910F900FBE0F901F901895109281
:10069000B90080E28093B800089594EA9093BC007A
:1006A0009091BC0097FFFCCF9091B900987F983053
:1006B00021F0903111F081E008958093BB0084E82F
:1006C0008093BC008091BC0087FFFCCF8091B90073
:1006D000887F883111F0803471F780E0089524EA32
:1006E00034E844E92093BC009091BC0097FFFCCF14
:1006F0009091B900987F983011F0903199F78093DC
:10070000BB003093BC009091BC0097FFFCCF909150
:10071000B900987F903211F0983539F44093BC00BD
:100720009091BC0094FDFCCFDDCF08950C944D0357
:1007300084E98093BC008091BC0084FDFCCF0895C7
:100740008093BB0084E88093BC008091BC0087FF4D
:10075000FCCF9091B900987F81E0983209F480E055
:10076000089584E88093BC008091BC0087FFFCCF93
:0A0770008091BB000895F894FFCFBC
:10077A000A0A0A0A0A0A05010D08040602000C09F7
:02078A000F005E
:00000001FF
